{
  "contractName": "ticketingSystem",
  "abi": [
    {
      "constant": true,
      "inputs": [],
      "name": "name",
      "outputs": [
        {
          "name": "",
          "type": "bytes32"
        }
      ],
      "payable": false,
      "stateMutability": "view",
      "type": "function"
    },
    {
      "constant": true,
      "inputs": [],
      "name": "ticketPrice",
      "outputs": [
        {
          "name": "",
          "type": "uint256"
        }
      ],
      "payable": false,
      "stateMutability": "view",
      "type": "function"
    },
    {
      "constant": true,
      "inputs": [],
      "name": "releaseEther",
      "outputs": [
        {
          "name": "",
          "type": "bool"
        }
      ],
      "payable": false,
      "stateMutability": "view",
      "type": "function"
    },
    {
      "constant": true,
      "inputs": [],
      "name": "venueOwner",
      "outputs": [
        {
          "name": "",
          "type": "address"
        }
      ],
      "payable": false,
      "stateMutability": "view",
      "type": "function"
    },
    {
      "constant": true,
      "inputs": [
        {
          "name": "",
          "type": "address"
        }
      ],
      "name": "pendingTransactions",
      "outputs": [
        {
          "name": "",
          "type": "uint256"
        }
      ],
      "payable": false,
      "stateMutability": "view",
      "type": "function"
    },
    {
      "constant": true,
      "inputs": [
        {
          "name": "",
          "type": "uint256"
        }
      ],
      "name": "ArtistRegister",
      "outputs": [
        {
          "name": "name",
          "type": "bytes32"
        },
        {
          "name": "category",
          "type": "uint256"
        },
        {
          "name": "ticketssold",
          "type": "uint256"
        }
      ],
      "payable": false,
      "stateMutability": "view",
      "type": "function"
    },
    {
      "constant": true,
      "inputs": [
        {
          "name": "",
          "type": "bytes32"
        }
      ],
      "name": "tickets",
      "outputs": [
        {
          "name": "paidFor",
          "type": "bool"
        },
        {
          "name": "owner",
          "type": "address"
        }
      ],
      "payable": false,
      "stateMutability": "view",
      "type": "function"
    },
    {
      "payable": false,
      "stateMutability": "nonpayable",
      "type": "fallback"
    },
    {
      "anonymous": false,
      "inputs": [
        {
          "indexed": false,
          "name": "ticketKey",
          "type": "bytes32"
        }
      ],
      "name": "TicketKey",
      "type": "event"
    },
    {
      "anonymous": false,
      "inputs": [
        {
          "indexed": false,
          "name": "canPurchase",
          "type": "bool"
        }
      ],
      "name": "CanPurchase",
      "type": "event"
    },
    {
      "anonymous": false,
      "inputs": [
        {
          "indexed": false,
          "name": "paid",
          "type": "bool"
        }
      ],
      "name": "PaidFor",
      "type": "event"
    },
    {
      "constant": false,
      "inputs": [
        {
          "name": "_name",
          "type": "bytes32"
        },
        {
          "name": "_category",
          "type": "uint256"
        }
      ],
      "name": "createArtist",
      "outputs": [],
      "payable": false,
      "stateMutability": "nonpayable",
      "type": "function"
    },
    {
      "constant": false,
      "inputs": [
        {
          "name": "price",
          "type": "uint256"
        },
        {
          "name": "title",
          "type": "bytes32"
        }
      ],
      "name": "Tickets",
      "outputs": [],
      "payable": false,
      "stateMutability": "nonpayable",
      "type": "function"
    },
    {
      "constant": false,
      "inputs": [],
      "name": "allowPurchase",
      "outputs": [],
      "payable": false,
      "stateMutability": "nonpayable",
      "type": "function"
    },
    {
      "constant": false,
      "inputs": [],
      "name": "lockPurchase",
      "outputs": [],
      "payable": false,
      "stateMutability": "nonpayable",
      "type": "function"
    },
    {
      "constant": false,
      "inputs": [],
      "name": "createTicket",
      "outputs": [],
      "payable": true,
      "stateMutability": "payable",
      "type": "function"
    }
  ],
  "bytecode": "0x6080604052600060065534801561001557600080fd5b506108f8806100256000396000f3fe6080604052600436106100ba576000357c0100000000000000000000000000000000000000000000000000000000900463ffffffff16806306fdde03146100e45780631209b1f61461010f5780631b4d15ae1461013a5780631d271709146101695780634e04cdc714610173578063624913321461018a57806371ecd9f3146101a1578063c127fd39146101f8578063ceacb7f71461025d578063ddd1f7a0146102ba578063df0dd0d5146102ff578063e62e4f8d14610385575b3480156100c657600080fd5b506000600260006101000a81548160ff021916908315150217905550005b3480156100f057600080fd5b506100f96103ca565b6040518082815260200191505060405180910390f35b34801561011b57600080fd5b506101246103d0565b6040518082815260200191505060405180910390f35b34801561014657600080fd5b5061014f6103d6565b604051808215151515815260200191505060405180910390f35b6101716103e9565b005b34801561017f57600080fd5b506101886105d0565b005b34801561019657600080fd5b5061019f610693565b005b3480156101ad57600080fd5b506101b6610756565b604051808273ffffffffffffffffffffffffffffffffffffffff1673ffffffffffffffffffffffffffffffffffffffff16815260200191505060405180910390f35b34801561020457600080fd5b506102476004803603602081101561021b57600080fd5b81019080803573ffffffffffffffffffffffffffffffffffffffff16906020019092919050505061077c565b6040518082815260200191505060405180910390f35b34801561026957600080fd5b506102966004803603602081101561028057600080fd5b8101908080359060200190929190505050610794565b60405180848152602001838152602001828152602001935050505060405180910390f35b3480156102c657600080fd5b506102fd600480360360408110156102dd57600080fd5b8101908080359060200190929190803590602001909291905050506107be565b005b34801561030b57600080fd5b506103386004803603602081101561032257600080fd5b810190808035906020019092919050505061082c565b60405180831515151581526020018273ffffffffffffffffffffffffffffffffffffffff1673ffffffffffffffffffffffffffffffffffffffff1681526020019250505060405180910390f35b34801561039157600080fd5b506103c8600480360360408110156103a857600080fd5b81019080803590602001909291908035906020019092919050505061087d565b005b60055481565b60035481565b600260009054906101000a900460ff1681565b600460009054906101000a900473ffffffffffffffffffffffffffffffffffffffff1673ffffffffffffffffffffffffffffffffffffffff163373ffffffffffffffffffffffffffffffffffffffff161415151561044657600080fd5b6003543414156105ce5734600160003373ffffffffffffffffffffffffffffffffffffffff1673ffffffffffffffffffffffffffffffffffffffff16815260200190815260200160002081905550600033604051602001808273ffffffffffffffffffffffffffffffffffffffff1673ffffffffffffffffffffffffffffffffffffffff16815260200191505060405160208183030381529060405280519060200120905060408051908101604052806000151581526020013373ffffffffffffffffffffffffffffffffffffffff1681525060008083815260200190815260200160002060008201518160000160006101000a81548160ff02191690831515021790555060208201518160000160016101000a81548173ffffffffffffffffffffffffffffffffffffffff021916908373ffffffffffffffffffffffffffffffffffffffff1602179055509050507f21a111596625a44e891aecea18a0fc918763d007d79e0192077db338db8c963c816040518082815260200191505060405180910390a1505b565b600460009054906101000a900473ffffffffffffffffffffffffffffffffffffffff1673ffffffffffffffffffffffffffffffffffffffff163373ffffffffffffffffffffffffffffffffffffffff1614151561062c57600080fd5b6001600260006101000a81548160ff0219169083151502179055507f572396e642acaa34c83f89427df4a22f433919a54455135ad1768ceda76dc6d6600260009054906101000a900460ff16604051808215151515815260200191505060405180910390a1565b600460009054906101000a900473ffffffffffffffffffffffffffffffffffffffff1673ffffffffffffffffffffffffffffffffffffffff163373ffffffffffffffffffffffffffffffffffffffff161415156106ef57600080fd5b6000600260006101000a81548160ff0219169083151502179055507f572396e642acaa34c83f89427df4a22f433919a54455135ad1768ceda76dc6d6600260009054906101000a900460ff16604051808215151515815260200191505060405180910390a1565b600460009054906101000a900473ffffffffffffffffffffffffffffffffffffffff1681565b60016020528060005260406000206000915090505481565b60076020528060005260406000206000915090508060000154908060010154908060020154905083565b816003819055508060058190555033600460006101000a81548173ffffffffffffffffffffffffffffffffffffffff021916908373ffffffffffffffffffffffffffffffffffffffff1602179055506000600260006101000a81548160ff0219169083151502179055505050565b60006020528060005260406000206000915090508060000160009054906101000a900460ff16908060000160019054906101000a900473ffffffffffffffffffffffffffffffffffffffff16905082565b816007600060065481526020019081526020016000206000018190555080600760006006548152602001908152602001600020600101819055506001600660008282540192505081905550505056fea165627a7a7230582049e1f2ad55c611c9ab67cdf9f37c18c2ed950b75bab2a643928445daffe97af00029",
  "source": "pragma solidity >= 0.4.22 <0.6.0;\r\n\r\ncontract ticketingSystem{\r\n\r\n\r\n\r\n  struct Ticket {\r\n    bool paidFor;\r\n    address owner;\r\n  }\r\n\r\n  mapping(bytes32 => Ticket) public tickets;\r\n  mapping(address => uint) public pendingTransactions;\r\n  bool public releaseEther;\r\n  uint public ticketPrice;\r\n  address public venueOwner;\r\n  bytes32 public name;\r\n  event TicketKey(bytes32 ticketKey);\r\n  event CanPurchase(bool canPurchase);\r\n  event PaidFor(bool paid);\r\n\r\n\r\n\r\n\r\n  modifier onlyOwner() {\r\n    require(msg.sender == venueOwner);\r\n    _;\r\n  }\r\n\r\n  modifier notOwner() {\r\n    require(msg.sender != venueOwner);\r\n    _;\r\n  }\r\n\r\n  modifier releaseTrue() {\r\n    require(releaseEther);\r\n    _;\r\n  }\r\n    \r\n   uint Nb_Artist=0;\r\n   \r\n   \r\n   struct Artist{\r\n   \r\n   bytes32 name;\r\n   uint category;\r\n   uint ticketssold;   \r\n   \r\n   }\r\n  \r\n  mapping(uint => Artist) public ArtistRegister;\r\n  \r\n  function createArtist(bytes32 _name,uint _category) public\r\n  {\r\n      ArtistRegister[Nb_Artist].name=_name;\r\n\t  ArtistRegister[Nb_Artist].category=_category;\r\n\t  \r\n\t  Nb_Artist +=1;\r\n  }\r\n  \r\n  function Tickets(uint price,bytes32 title)public{\r\n    ticketPrice = price;\r\n    name = title;\r\n    venueOwner = msg.sender;\r\n    releaseEther = false;\r\n  }\r\n\r\n  function ()external{\r\n    releaseEther = false;\r\n  }\r\n    \r\n  function allowPurchase() onlyOwner public {\r\n    releaseEther = true;\r\n    emit CanPurchase(releaseEther);\r\n  }\r\n\r\n  function lockPurchase() onlyOwner public{\r\n    releaseEther = false;\r\n   emit CanPurchase(releaseEther);\r\n  }\r\n\r\n  function createTicket() payable notOwner public{\r\n    if (msg.value == ticketPrice) {\r\n      pendingTransactions[msg.sender] = msg.value;\r\n      bytes32 hash = keccak256(abi.encode(msg.sender));\r\n      tickets[hash] = Ticket(false, msg.sender);\r\n      emit TicketKey(hash);\r\n    }\r\n  }\r\n\r\n}",
  "sourcePath": "C:/Users/Yasser/AppData/Roaming/TD7 Blockchain/contracts/ticketingSystem.sol",
  "compiler": {
    "name": "solc",
    "version": "0.5.0+commit.1d4f565a.Emscripten.clang"
  },
  "schemaVersion": "3.0.5",
  "updatedAt": "2019-03-22T17:06:03.549Z",
  "devdoc": {
    "methods": {}
  },
  "userdoc": {
    "methods": {}
  }
}